:0A0000001A2B000000000000002889
:10000A000F30FC004730FD00FD0B0928FC0B0928C6
:06001A00000000000800D8
:06002000000000000800D2
:0A0026002130FD00FD0B1528080035
:10003000710DF80DF90D7408F8027508031C750FA1
:10004000F902F00DF10D0F30FC00710DF80DF90DF6
:100050007408701C3128F8027508031C750FF9022A
:100060003628F80775080318750FF907F00DF10D1C
:10007000FC0B2528701842287408F8077508031827
:08008000750FF90700000800EC
:1000880083120313DE1B4A2886134B2886175E1B30
:100098004F28061350280617DE1A542886125528AA
:1000A80086165E1A592806125A2806164B185E2814
:1000B80006155F280611861510208611DE19662898
:1000C8008613672886175E196B2806136C2806178F
:1000D800DE1870288612712886165E187528061292
:1000E800762806164B187A2806157B2806118615D9
:1000F800102086114B1C8228052083281320080015
:1001080083160313141992281F301105F100710882
:10011800003A031D92280130F0000800F0010800A1
:0E012800831603139114911C9A28972808003F
:0E0136008312031344088A0043088200080065
:1001440083120313FD01F901F80171087004031906
:10015400003471087506FA00FA1BFD09FB01F51F4E
:10016400B828F409F509F40A0319F50AF11FBF28A0
:10017400F009F109F00A0319F10A71087504FA008B
:10018400FA1BD42818207B18E728FD1F0034F00937
:10019400F109F00A0319F10AF809F909F80A03192F
:1001A400F90A0034F51FE328F11BDF287108F90070
:1001B4007008F800F101F001C728F101F001F00A1C
:1001C4000034F109F009FB0AC428F80A0319F90AF2
:1001D40074087802031DC72875087902031DC7280F
:1001E400F901F801F00A0319F10AF11FC728000008
:0401F400FF340800CC
:1001F80083120313DC01DD015D08123C031D06298F
:100208005C088E3C031C12298420700803190D29F0
:1002180012298312DC0A0319DD0A0029831212301D
:100228005D02031D19298F305C02031C1E297B30D7
:10023800F000080083161114111C23292029F0014D
:020248000800AC
:10024A00831203138C118316911583128C192E298C
:10025A002A291308F1005C08003A031D372983167E
:10026A00911639298316911283128C11831611164D
:0E027A0083128C1941293D297108F0000800FB
:1002880083120313FB01FA01F9018030F800F10C25
:10029800F00C031C58297408F90775080318750F22
:1002A800FA070318FB0A0310F01F60297408FA07FD
:1002B80075080318750FFB07FB0CFA0CF90CF80C02
:1002C800031C4B297B08F3007A08F2007908F10037
:0602D8007808F0000800A8
:1002DE00831203134B105C08DE0044204B140800FD
:0802EE0083160313111508002B
:1002F600831203138C115C0893008316141D842942
:10030600802983128C19882984298316111B8D292B
:0C031600F001080011150230F000080092
:10032200FC20D03083120313DC007B218312580897
:10033200DC007B2183125908DC007B217721080035
:100342009B208A110A128000840AC30A0319C40A74
:08035200F003031DA1290800BE
:10035A000A3083120313F4000030F5005808F00045
:10036A005908F100A2207808F0007908F100700815
:10037A00DA007108DB000F307005DA007108DB0063
:10038A000030DB050A30F4000030F5005808F000B0
:10039A005908F100A2207008D8007108D9000A3063
:1003AA00F4000030F500A2207808F0007908F10086
:1003BA000F307005F3007108F4000030F4050430C2
:1003CA00F2007308F0007408F10072080319F229A8
:1003DA00F00DF10D7010FF3EEB29F030F005003002
:1003EA00F1055A08F0045B08F1047008DA00710894
:0403FA00DB0008001C
:1003FE008030831203135906F00080307002031D03
:10040E000A2A003058020318152A5808003CF0003A
:10041E005908031C013EF101F10208005808F000D2
:06042E005908F10008006E
:10043400FC20D03083120313DC007B218312580884
:10044400DC007B219420D1308312DC007B218312D9
:10045400DC0125217008D900772183125908F000A6
:0204640008008E
:100466008316031314139413071687153830831253
:0404760094000800E6
:10047A000F30831203135805DA005908DB000030E5
:10048A00DB05F0305805F3005908F4000030F40594
:10049A007308D8007408D9000430F2007308F00019
:1004AA007408F10072080319612AF10CF00CF113B7
:1004BA00711BF117FF3E582A0F30F0050030F10585
:1004CA000A30F4000030F50044215A08F0075B08AE
:1004DA000318013EF1077008DA007108DB00080012
:1004EA008316031386110611061286120613861343
:1004FA008312861106118613061386120612052028
:10050A000520052086160616861510208611052058
:10051A0086151020861105208615102086110520C3
:10052A0006128615102086110520861510208611C0
:10053A008612861786151020861105208613061640
:10054A0086151020861106128615102086110520A0
:10055A00861510208611061686151020861105208C
:10056A000612861510208611861706178616061695
:0C057A0086151020861105204B14080087
:10058600D52A803083120313D800E82AC030D80059
:10059600E82A9430D800E82AD430D800E82A8030F7
:1005A600D800E82A831203135808013A0319C42A0B
:1005B6005808023A0319C92A5808033A0319CC2ADB
:1005C6005808043A0319CF2AD22A5903F0005808CA
:1005D600F0077008D8007008DE0044204B10DB01DD
:1005E6005B085A07840000080319012B5B085A07A9
:1005F60084000008DC006F21DB0AF32A4B14080094
:10060600831203135808F000F00CF013F00CF013EB
:0E061600F00CF013F00CF0133030F007080079
:100624000F30831203135805F0003030F007080030
:1006340083120313A0014430A1006130A20074307E
:10064400A3006530A4003A30A500A6015430A700E9
:100654006930A8006D30A9006530AA003A30AB00BB
:10066400AC013030AD003030AE003A30AF00303045
:10067400B0003030B1003A30B2003030B300303026
:10068400B4002030B5005030B6004D30B700B8018A
:100694003030B9003030BA002D30BB003030BC00EF
:1006A4003030BD002D30BE003030BF003030C000CF
:1006B400C1011430831693003322073083169C0043
:1006C40006309F00073085008312850175220130B2
:1006D400DE0044200C30DE0044200130D80001301C
:1006E400D9002730DA00C3220230D8000130D90003
:1006F4002130DA00C322C2010518952B0230FB0019
:100704000430FC00BA30FD00FD0B862BFC0B862B5D
:10071400FB0B862B00000518952BA00A073020023E
:10072400031C952BA00120080319512D8518AB2B10
:100734000230FB000430FC00BA30FD00FD0BA02B9E
:10074400FC0BA02BFB0BA02B00008518AB2B01305E
:10075400C2000519BE2B0230FB000430FC00BA3085
:10076400FD00FD0BB32BFC0BB32BFB0BB32B0000D9
:100774000519BE2BFF30C20020080319512D420871
:100784000319512D382D4508D8004608D9003D22BB
:100794007008C5007108C6004208F0070318F10A82
:1007A4000030C21BFF30F1077008C5007108C60095
:1007B4007008D8007108D900AD217008C50071080F
:1007C400C6001F307005F2007108F3000030F30515
:1007D40080307306F00080307002031DF32B133059
:1007E4007202031CFE2BE130C5050030C605203023
:1007F400C5060030C606182C1F304505F100460812
:10080400F2000030F2058030F00080307206700291
:10081400031D0E2C7108003C031C182C1230C50457
:100824000030C6042030C5060030C6060230D800A9
:100834004508D9009121512D83125008D800510840
:10084400D9003D227008D0007108D1004208700719
:10085400F20071080318013EF3000030C21BFF30A0
:10086400F3077208D0007308D10080307306F000DB
:1008740080307002031D402C3C307202031C442C57
:10088400D001D10180305106F00080307002031D88
:100894004D2C003050020318532C3B30D000003054
:1008A400D1005008D8005108D900AD217008D000FB
:1008B4007108D1000130D8007008D9009121512D60
:1008C40083124208D8000030D81BFF30D900FF2122
:1008D400700871040319712CD801D9019121512D8B
:1008E40083124E08D8004F08D9003D227008CE006C
:1008F4007108CF004208F0070318F10A0030C21B48
:10090400FF30F1077008CE007108CF007008D800DE
:100914007108D900AD217008CE007108CF00803075
:100924007106F20080307202031D9A2C323070027C
:10093400031CA02C0130CE000030CF008030F0002A
:1009440080304F067002031DA92C4E08003C031C86
:10095400AF2C3130CE000030CF000430D8004E0828
:10096400D9009121512D83125208D8005308D9007F
:100974003D227008D2007108D3004208F007031822
:10098400F10A0030C21BFF30F1077008D200710871
:10099400D3007008D8007108D900AD217008D200C6
:1009A4007108D3008030F200803071067202031D9A
:1009B400DD2C7008123C0318E32C0130D200003007
:1009C400D3008030F000803053067002031DEC2CFD
:1009D4005208003C031CF22C1230D2000030D30029
:1009E4000530D8005208D9009121512D83125608A0
:1009F400D8005708D9003D227008D6007108D700E6
:100A04004208F0070318F10A0030C21BFF30F10757
:100A14007008D6007108D7007008D8007108D90092
:100A2400AD217008D6007108D7007F30F200803005
:100A340071067202031D202D7008FF3C031C252D36
:100A44009930D600D70180305706F000803070020C
:100A5400031D2E2D50305602031C322DD601D70112
:100A64000630D8005608D9009121512D8312200850
:100A7400013A0319C52B2008023A03191E2C200839
:100A8400033A0319622C2008043A0319722C200833
:100A9400053A0319B52C2008063A0319F82C8312D9
:100AA400D8011A227008D400D5010130D8001A22C6
:100AB4007008D000D1010230D8001A227008C50095
:100AC400C6011F304505CC004608CD000030CD05D9
:100AD40020304505C9004608CA000030CA05033065
:100AE400D8001A227008C700C8010430D8001A229E
:100AF4007008CE00CF010530D8001A227008D20049
:100B0400D3010630D8001A227008D600D7014C0849
:100B1400D80003237008AD004C08D80012237008D5
:100B2400AE005008D80003237008B0005008D80065
:100B340012237008B1005408D80003237008B300CE
:100B44005408D80012237008B4004E08D8000323B8
:100B54007008B9004E08D80012237008BA00520871
:100B6400D80003237008BC005208D8001223700870
:100B7400BD005608D80003237008BF005608D800EB
:100B840012237008C00049084A040319CE2D5030BE
:100B9400B6004D30B700D22D4130B6004D30B7000D
:100BA4000130D8000630D9002D30DA00C3220230DB
:100BB400D8000630D9003930DA00C3220230FB00F5
:100BC4000430FC00BA30FD00FD0BE62DFC0BE62DD5
:0A0BD400FB0BE62D00007D2BEE2D3B
:02400E004A2F37
:00000001FF
