:060000000A128A11122809
:10000800FE00030EF1000408F2000A08F300831250
:1000180003137F08F4000A128A11C8290A128A11E8
:100028001528F501F601F701F80183010A128A1172
:100038001D280A128A1103220A128A118316031331
:1000480088013030850002308600FF3083120313A8
:1000580085007F308800FF3086008B170B178501DD
:100068000A30A0000030A1007708A900AA012908D9
:10007800A2002A08A3000A128A1140210A128A1132
:100088008312031320080A128A118D210A128A1179
:10009800831203138800013085004130AA00EE3036
:1000A800A900A90B5528AA0B552800008312031391
:1000B80085010A30A0000030A1007708A900AA0134
:1000C8002908A2002A08A3000A128A11E5200A12A8
:1000D8008A118312031320080A128A118D210A1229
:1000E8008A11831203138800023085004130AA0068
:1000F800EE30A900A90B7E28AA0B7E2800008312E7
:10010800031385010A30A0000030A1007608A90079
:10011800AA012908A2002A08A3000A128A1140216C
:100128000A128A118312031320080A128A118D21D8
:100138000A128A117F39831203138800043085005C
:100148004130AA00EE30A900A90BA828AA0BA828BC
:1001580000008312031385010A30A0000030A100BB
:100168007608A900AA012908A2002A08A3000A12F1
:100178008A11E5200A128A118312031320080A1231
:100188008A118D210A128A118312031388000830FC
:1001980085004130AA00EE30A900A90BD128AA0B8E
:1001A800D1280000831203138618DE280130A90025
:1001B8002908F707061933280130A9002908F60786
:1001C800332883120313A601A11FF128A009A1094E
:1001D800A00A0319A10AA601A60AA31FFC28A209BE
:1001E800A309A20A0319A30A0130A4002408A60639
:1001F800A701A8012008210403193329A501A50A8C
:10020800A11B122901300310A00DA10DFF3E031DF3
:1002180007290130A4002408A50704290130031088
:10022800A70DA80DFF3E031D132921082302031D56
:100238001F2920082202031C28292008A2022108BD
:10024800031CA303A302271401300310A10CA00C64
:10025800FF3E031D29290130A502031D1229260886
:1002680003193B29A709A809A70A0319A80A2808F6
:10027800A1002708A000080083120313A601A31FEA
:100288004C29A209A309A20A0319A30AA601A60ACE
:10029800A11F5329A009A109A00A0319A10A20082E
:1002A800210403198029A501A50AA11B672901308A
:1002B8000310A00DA10DFF3E031D5C290130A40011
:1002C8002408A507592921082302031D6D292008A0
:1002D8002202031C75292008A2022108031CA3037B
:1002E800A30201300310A10CA00CFF3E031D7629C8
:1002F8000130A502031D6729260803198829A209C8
:10030800A309A20A0319A30A2308A1002208A0002E
:10031800080083120313A000A729C0300800F93091
:100328000800A4300800B030080099300800923066
:10033800080082300800F830080080300800983043
:100348000800BF3008002008003A03199129013A33
:1003580003199329033A03199529013A031997298F
:10036800073A03199929013A03199B29033A0319F2
:100378009D29013A03199F290F3A0319A129013A26
:100388000319A329A52908000C1CF8290130F0003D
:100398007008F5070A307506031DD8290130F000EA
:1003A8007008F8078809F5013C307802031CE12938
:1003B8000130F0007008F707F8013C307702031CA1
:1003C800EB290130F0007008F607F701F8013C301E
:1003D8007602031CF229F801F701F6010B308F00B1
:1003E800DB308E000C1010147408FF0073088A00AC
:1003F80072088400710E8300FE0E7E0E09008312BF
:100408000313101690169015831603130C148312F9
:060418000313101408009C
:02400E003AFF77
:00000001FF
