:060000000A128A11122809
:10000800FE00030EF0000408F1000A08F200831253
:1000180003137F08F3000A128A1119280A128A1199
:10002800152883010A128A1136280C1C2B288801EE
:10003800081C232808182228081423280810FF3031
:10004800831203138F00FF308E000C1010147308F6
:10005800FF0072088A0071088400700E8300FE0E8B
:100068007E0E09000A128A1148200A128A11831684
:100078000313880185010130831203138500FF30C3
:1000880088008B170B17472883120313101690123A
:100098009015831603130C1483120313101408000D
:02400E003AFF77
:00000001FF
